{
  "contractName": "Bank",
  "abi": [
    {
      "constant": true,
      "inputs": [
        {
          "name": "",
          "type": "string"
        }
      ],
      "name": "kycreqs",
      "outputs": [
        {
          "name": "custname",
          "type": "string"
        },
        {
          "name": "bankadd",
          "type": "address"
        },
        {
          "name": "kycdata",
          "type": "string"
        }
      ],
      "payable": false,
      "stateMutability": "view",
      "type": "function"
    },
    {
      "constant": true,
      "inputs": [
        {
          "name": "",
          "type": "address"
        }
      ],
      "name": "banks",
      "outputs": [
        {
          "name": "bankname",
          "type": "string"
        },
        {
          "name": "ethaddress",
          "type": "address"
        },
        {
          "name": "report",
          "type": "uint256"
        },
        {
          "name": "count",
          "type": "uint256"
        },
        {
          "name": "kycpermission",
          "type": "bool"
        },
        {
          "name": "regnumber",
          "type": "string"
        }
      ],
      "payable": false,
      "stateMutability": "view",
      "type": "function"
    },
    {
      "constant": true,
      "inputs": [
        {
          "name": "",
          "type": "string"
        }
      ],
      "name": "customers",
      "outputs": [
        {
          "name": "custname",
          "type": "string"
        },
        {
          "name": "custdata",
          "type": "string"
        },
        {
          "name": "status",
          "type": "bool"
        },
        {
          "name": "downvote",
          "type": "uint256"
        },
        {
          "name": "upvote",
          "type": "uint256"
        },
        {
          "name": "custbank",
          "type": "address"
        }
      ],
      "payable": false,
      "stateMutability": "view",
      "type": "function"
    },
    {
      "constant": true,
      "inputs": [],
      "name": "isallowed",
      "outputs": [
        {
          "name": "",
          "type": "bool"
        }
      ],
      "payable": false,
      "stateMutability": "view",
      "type": "function"
    },
    {
      "constant": false,
      "inputs": [
        {
          "name": "ethaddress",
          "type": "address"
        },
        {
          "name": "custname",
          "type": "string"
        },
        {
          "name": "kycdata",
          "type": "string"
        }
      ],
      "name": "addreq",
      "outputs": [
        {
          "name": "",
          "type": "bool"
        }
      ],
      "payable": false,
      "stateMutability": "nonpayable",
      "type": "function"
    },
    {
      "constant": false,
      "inputs": [
        {
          "name": "custname",
          "type": "string"
        },
        {
          "name": "custdata",
          "type": "string"
        }
      ],
      "name": "addcust",
      "outputs": [],
      "payable": false,
      "stateMutability": "nonpayable",
      "type": "function"
    },
    {
      "constant": false,
      "inputs": [
        {
          "name": "kycname",
          "type": "string"
        }
      ],
      "name": "remreq",
      "outputs": [
        {
          "name": "",
          "type": "bool"
        }
      ],
      "payable": false,
      "stateMutability": "nonpayable",
      "type": "function"
    },
    {
      "constant": false,
      "inputs": [
        {
          "name": "custname",
          "type": "string"
        }
      ],
      "name": "remcust",
      "outputs": [
        {
          "name": "",
          "type": "bool"
        }
      ],
      "payable": false,
      "stateMutability": "nonpayable",
      "type": "function"
    },
    {
      "constant": true,
      "inputs": [
        {
          "name": "custname",
          "type": "string"
        }
      ],
      "name": "viewcust",
      "outputs": [
        {
          "name": "",
          "type": "string"
        },
        {
          "name": "",
          "type": "string"
        }
      ],
      "payable": false,
      "stateMutability": "view",
      "type": "function"
    },
    {
      "constant": false,
      "inputs": [
        {
          "name": "custname",
          "type": "string"
        }
      ],
      "name": "uvote",
      "outputs": [
        {
          "name": "",
          "type": "bool"
        }
      ],
      "payable": false,
      "stateMutability": "nonpayable",
      "type": "function"
    },
    {
      "constant": false,
      "inputs": [
        {
          "name": "custname",
          "type": "string"
        }
      ],
      "name": "dvote",
      "outputs": [
        {
          "name": "",
          "type": "bool"
        }
      ],
      "payable": false,
      "stateMutability": "nonpayable",
      "type": "function"
    },
    {
      "constant": false,
      "inputs": [
        {
          "name": "custname",
          "type": "string"
        }
      ],
      "name": "modcust",
      "outputs": [
        {
          "name": "",
          "type": "bool"
        }
      ],
      "payable": false,
      "stateMutability": "nonpayable",
      "type": "function"
    },
    {
      "constant": false,
      "inputs": [
        {
          "name": "ethaddress",
          "type": "address"
        }
      ],
      "name": "addbankreport",
      "outputs": [],
      "payable": false,
      "stateMutability": "nonpayable",
      "type": "function"
    },
    {
      "constant": true,
      "inputs": [
        {
          "name": "ethaddress",
          "type": "address"
        }
      ],
      "name": "seebankreport",
      "outputs": [
        {
          "name": "",
          "type": "uint256"
        }
      ],
      "payable": false,
      "stateMutability": "view",
      "type": "function"
    },
    {
      "constant": true,
      "inputs": [
        {
          "name": "custname",
          "type": "string"
        }
      ],
      "name": "custstatus",
      "outputs": [
        {
          "name": "",
          "type": "bool"
        }
      ],
      "payable": false,
      "stateMutability": "view",
      "type": "function"
    },
    {
      "constant": true,
      "inputs": [
        {
          "name": "_address",
          "type": "address"
        }
      ],
      "name": "bankdetail",
      "outputs": [
        {
          "name": "",
          "type": "string"
        },
        {
          "name": "",
          "type": "address"
        },
        {
          "name": "",
          "type": "uint256"
        },
        {
          "name": "",
          "type": "uint256"
        },
        {
          "name": "",
          "type": "string"
        }
      ],
      "payable": false,
      "stateMutability": "view",
      "type": "function"
    },
    {
      "constant": false,
      "inputs": [
        {
          "name": "bankname",
          "type": "string"
        },
        {
          "name": "_address",
          "type": "address"
        },
        {
          "name": "regnumber",
          "type": "string"
        }
      ],
      "name": "addbank",
      "outputs": [],
      "payable": false,
      "stateMutability": "nonpayable",
      "type": "function"
    },
    {
      "constant": false,
      "inputs": [
        {
          "name": "_address",
          "type": "address"
        }
      ],
      "name": "modifybank",
      "outputs": [],
      "payable": false,
      "stateMutability": "nonpayable",
      "type": "function"
    },
    {
      "constant": false,
      "inputs": [
        {
          "name": "_address",
          "type": "address"
        }
      ],
      "name": "rembank",
      "outputs": [],
      "payable": false,
      "stateMutability": "nonpayable",
      "type": "function"
    }
  ],
  "bytecode": "0x6080604052600060015534801561001557600080fd5b50612c9d806100256000396000f3fe608060405234801561001057600080fd5b50600436106101215760003560e01c80639d7c86a7116100ad578063ce3b82ef11610071578063ce3b82ef14611158578063ce5b7a411461122b578063d34acbfb1461124d578063de2c869c14611291578063eb82f4cd1461136457610121565b80639d7c86a714610bfc578063a82c98d014610ccf578063bc5cb20a14610ebb578063c7e5448114610f13578063c98b965e14610fe657610121565b80632895e615116100f45780632895e615146105fd57806333708e5e146106415780635650a0bd146107cb57806370bce2281461091d57806380c3b8c214610a8757610121565b80630b129d45146101265780630f94a030146101f95780631de434ea146102cc57806322ac406f1461049f575b600080fd5b6101df6004803603602081101561013c57600080fd5b810190808035906020019064010000000081111561015957600080fd5b82018360208201111561016b57600080fd5b8035906020019184600183028401116401000000008311171561018d57600080fd5b91908080601f016020809104026020016040519081016040528093929190818152602001838380828437600081840152601f19601f8201169050808301925050505050505091929192905050506113a8565b604051808215151515815260200191505060405180910390f35b6102b26004803603602081101561020f57600080fd5b810190808035906020019064010000000081111561022c57600080fd5b82018360208201111561023e57600080fd5b8035906020019184600183028401116401000000008311171561026057600080fd5b91908080601f016020809104026020016040519081016040528093929190818152602001838380828437600081840152601f19601f820116905080830192505050505050509192919290505050611430565b604051808215151515815260200191505060405180910390f35b610385600480360360208110156102e257600080fd5b81019080803590602001906401000000008111156102ff57600080fd5b82018360208201111561031157600080fd5b8035906020019184600183028401116401000000008311171561033357600080fd5b91908080601f016020809104026020016040519081016040528093929190818152602001838380828437600081840152601f19601f8201169050808301925050505050505091929192905050506114b7565b60405180806020018473ffffffffffffffffffffffffffffffffffffffff1673ffffffffffffffffffffffffffffffffffffffff16815260200180602001838103835286818151815260200191508051906020019080838360005b838110156103fb5780820151818401526020810190506103e0565b50505050905090810190601f1680156104285780820380516001836020036101000a031916815260200191505b50838103825284818151815260200191508051906020019080838360005b83811015610461578082015181840152602081019050610446565b50505050905090810190601f16801561048e5780820380516001836020036101000a031916815260200191505b509550505050505060405180910390f35b610516600480360360208110156104b557600080fd5b81019080803590602001906401000000008111156104d257600080fd5b8201836020820111156104e457600080fd5b8035906020019184600183028401116401000000008311171561050657600080fd5b9091929391929390505050611647565b604051808060200180602001838103835285818151815260200191508051906020019080838360005b8381101561055a57808201518184015260208101905061053f565b50505050905090810190601f1680156105875780820380516001836020036101000a031916815260200191505b50838103825284818151815260200191508051906020019080838360005b838110156105c05780820151818401526020810190506105a5565b50505050905090810190601f1680156105ed5780820380516001836020036101000a031916815260200191505b5094505050505060405180910390f35b61063f6004803603602081101561061357600080fd5b81019080803573ffffffffffffffffffffffffffffffffffffffff169060200190929190505050611865565b005b6107b16004803603606081101561065757600080fd5b81019080803573ffffffffffffffffffffffffffffffffffffffff1690602001909291908035906020019064010000000081111561069457600080fd5b8201836020820111156106a657600080fd5b803590602001918460018302840111640100000000831117156106c857600080fd5b91908080601f016020809104026020016040519081016040528093929190818152602001838380828437600081840152601f19601f8201169050808301925050505050505091929192908035906020019064010000000081111561072b57600080fd5b82018360208201111561073d57600080fd5b8035906020019184600183028401116401000000008311171561075f57600080fd5b91908080601f016020809104026020016040519081016040528093929190818152602001838380828437600081840152601f19601f82011690508083019250505050505050919291929050505061196f565b604051808215151515815260200191505060405180910390f35b61091b600480360360408110156107e157600080fd5b81019080803590602001906401000000008111156107fe57600080fd5b82018360208201111561081057600080fd5b8035906020019184600183028401116401000000008311171561083257600080fd5b91908080601f016020809104026020016040519081016040528093929190818152602001838380828437600081840152601f19601f8201169050808301925050505050505091929192908035906020019064010000000081111561089557600080fd5b8201836020820111156108a757600080fd5b803590602001918460018302840111640100000000831117156108c957600080fd5b91908080601f016020809104026020016040519081016040528093929190818152602001838380828437600081840152601f19601f820116905080830192505050505050509192919290505050611add565b005b61095f6004803603602081101561093357600080fd5b81019080803573ffffffffffffffffffffffffffffffffffffffff169060200190929190505050611ca9565b60405180806020018673ffffffffffffffffffffffffffffffffffffffff1673ffffffffffffffffffffffffffffffffffffffff16815260200185815260200184815260200180602001838103835288818151815260200191508051906020019080838360005b838110156109e15780820151818401526020810190506109c6565b50505050905090810190601f168015610a0e5780820380516001836020036101000a031916815260200191505b50838103825284818151815260200191508051906020019080838360005b83811015610a47578082015181840152602081019050610a2c565b50505050905090810190601f168015610a745780820380516001836020036101000a031916815260200191505b5097505050505050505060405180910390f35b610ac960048036036020811015610a9d57600080fd5b81019080803573ffffffffffffffffffffffffffffffffffffffff169060200190929190505050611f6a565b60405180806020018773ffffffffffffffffffffffffffffffffffffffff1673ffffffffffffffffffffffffffffffffffffffff1681526020018681526020018581526020018415151515815260200180602001838103835289818151815260200191508051906020019080838360005b83811015610b55578082015181840152602081019050610b3a565b50505050905090810190601f168015610b825780820380516001836020036101000a031916815260200191505b50838103825284818151815260200191508051906020019080838360005b83811015610bbb578082015181840152602081019050610ba0565b50505050905090810190601f168015610be85780820380516001836020036101000a031916815260200191505b509850505050505050505060405180910390f35b610cb560048036036020811015610c1257600080fd5b8101908080359060200190640100000000811115610c2f57600080fd5b820183602082011115610c4157600080fd5b80359060200191846001830284011164010000000083111715610c6357600080fd5b91908080601f016020809104026020016040519081016040528093929190818152602001838380828437600081840152601f19601f820116905080830192505050505050509192919290505050612103565b604051808215151515815260200191505060405180910390f35b610d8860048036036020811015610ce557600080fd5b8101908080359060200190640100000000811115610d0257600080fd5b820183602082011115610d1457600080fd5b80359060200191846001830284011164010000000083111715610d3657600080fd5b91908080601f016020809104026020016040519081016040528093929190818152602001838380828437600081840152601f19601f8201169050808301925050505050505091929192905050506122a5565b604051808060200180602001871515151581526020018681526020018581526020018473ffffffffffffffffffffffffffffffffffffffff1673ffffffffffffffffffffffffffffffffffffffff168152602001838103835289818151815260200191508051906020019080838360005b83811015610e14578082015181840152602081019050610df9565b50505050905090810190601f168015610e415780820380516001836020036101000a031916815260200191505b50838103825288818151815260200191508051906020019080838360005b83811015610e7a578082015181840152602081019050610e5f565b50505050905090810190601f168015610ea75780820380516001836020036101000a031916815260200191505b509850505050505050505060405180910390f35b610efd60048036036020811015610ed157600080fd5b81019080803573ffffffffffffffffffffffffffffffffffffffff169060200190929190505050612454565b6040518082815260200191505060405180910390f35b610fcc60048036036020811015610f2957600080fd5b8101908080359060200190640100000000811115610f4657600080fd5b820183602082011115610f5857600080fd5b80359060200191846001830284011164010000000083111715610f7a57600080fd5b91908080601f016020809104026020016040519081016040528093929190818152602001838380828437600081840152601f19601f8201169050808301925050505050505091929192905050506124a0565b604051808215151515815260200191505060405180910390f35b61115660048036036060811015610ffc57600080fd5b810190808035906020019064010000000081111561101957600080fd5b82018360208201111561102b57600080fd5b8035906020019184600183028401116401000000008311171561104d57600080fd5b91908080601f016020809104026020016040519081016040528093929190818152602001838380828437600081840152601f19601f820116905080830192505050505050509192919290803573ffffffffffffffffffffffffffffffffffffffff169060200190929190803590602001906401000000008111156110d057600080fd5b8201836020820111156110e257600080fd5b8035906020019184600183028401116401000000008311171561110457600080fd5b91908080601f016020809104026020016040519081016040528093929190818152602001838380828437600081840152601f19601f82011690508083019250505050505050919291929050505061253b565b005b6112116004803603602081101561116e57600080fd5b810190808035906020019064010000000081111561118b57600080fd5b82018360208201111561119d57600080fd5b803590602001918460018302840111640100000000831117156111bf57600080fd5b91908080601f016020809104026020016040519081016040528093929190818152602001838380828437600081840152601f19601f820116905080830192505050505050509192919290505050612745565b604051808215151515815260200191505060405180910390f35b611233612803565b604051808215151515815260200191505060405180910390f35b61128f6004803603602081101561126357600080fd5b81019080803573ffffffffffffffffffffffffffffffffffffffff169060200190929190505050612815565b005b61134a600480360360208110156112a757600080fd5b81019080803590602001906401000000008111156112c457600080fd5b8201836020820111156112d657600080fd5b803590602001918460018302840111640100000000831117156112f857600080fd5b91908080601f016020809104026020016040519081016040528093929190818152602001838380828437600081840152601f19601f820116905080830192505050505050509192919290505050612869565b604051808215151515815260200191505060405180910390f35b6113a66004803603602081101561137a57600080fd5b81019080803573ffffffffffffffffffffffffffffffffffffffff169060200190929190505050612ac3565b005b60006002826040518082805190602001908083835b602083106113e057805182526020820191506020810190506020830392506113bd565b6001836020036101000a0380198251168184511680821785525050505050509050019150509081526020016040518091039020600301600081548092919060019003919050555060019050919050565b60006002826040518082805190602001908083835b602083106114685780518252602082019150602081019050602083039250611445565b6001836020036101000a03801982511681845116808217855250505050505090500191505090815260200160405180910390206004016000815480929190600101919050555060019050919050565b600581805160208101820180518482526020830160208501208183528095505050505050600091509050806000018054600181600116156101000203166002900480601f0160208091040260200160405190810160405280929190818152602001828054600181600116156101000203166002900480156115795780601f1061154e57610100808354040283529160200191611579565b820191906000526020600020905b81548152906001019060200180831161155c57829003601f168201915b5050505050908060010160009054906101000a900473ffffffffffffffffffffffffffffffffffffffff1690806002018054600181600116156101000203166002900480601f01602080910402602001604051908101604052809291908181526020018280546001816001161561010002031660029004801561163d5780601f106116125761010080835404028352916020019161163d565b820191906000526020600020905b81548152906001019060200180831161162057829003601f168201915b5050505050905083565b606080600073ffffffffffffffffffffffffffffffffffffffff1660028585604051808383808284378083019250505092505050908152602001604051809103902060050160009054906101000a900473ffffffffffffffffffffffffffffffffffffffff1673ffffffffffffffffffffffffffffffffffffffff1614156116ce57600080fd5b600284846040518083838082843780830192505050925050509081526020016040518091039020600001600285856040518083838082843780830192505050925050509081526020016040518091039020600101818054600181600116156101000203166002900480601f0160208091040260200160405190810160405280929190818152602001828054600181600116156101000203166002900480156117b75780601f1061178c576101008083540402835291602001916117b7565b820191906000526020600020905b81548152906001019060200180831161179a57829003601f168201915b50505050509150808054600181600116156101000203166002900480601f0160208091040260200160405190810160405280929190818152602001828054600181600116156101000203166002900480156118535780601f1061182857610100808354040283529160200191611853565b820191906000526020600020905b81548152906001019060200180831161183657829003601f168201915b50505050509050915091509250929050565b600060019054906101000a900473ffffffffffffffffffffffffffffffffffffffff1673ffffffffffffffffffffffffffffffffffffffff163373ffffffffffffffffffffffffffffffffffffffff16146118bf57600080fd5b600360008273ffffffffffffffffffffffffffffffffffffffff1673ffffffffffffffffffffffffffffffffffffffff1681526020019081526020016000206000808201600061190f9190612b7b565b6001820160006101000a81549073ffffffffffffffffffffffffffffffffffffffff0219169055600282016000905560038201600090556004820160006101000a81549060ff021916905560058201600061196a9190612b7b565b505050565b6000801515600360008673ffffffffffffffffffffffffffffffffffffffff1673ffffffffffffffffffffffffffffffffffffffff16815260200190815260200160002060040160009054906101000a900460ff161515146119d057600080fd5b826005846040518082805190602001908083835b60208310611a0757805182526020820191506020810190506020830392506119e4565b6001836020036101000a03801982511681845116808217855250505050505090500191505090815260200160405180910390206000019080519060200190611a50929190612bc3565b50816005846040518082805190602001908083835b60208310611a885780518252602082019150602081019050602083039250611a65565b6001836020036101000a03801982511681845116808217855250505050505090500191505090815260200160405180910390206002019080519060200190611ad1929190612bc3565b50600190509392505050565b600073ffffffffffffffffffffffffffffffffffffffff166002836040518082805190602001908083835b60208310611b2b5780518252602082019150602081019050602083039250611b08565b6001836020036101000a038019825116818451168082178552505050505050905001915050908152602001604051809103902060050160009054906101000a900473ffffffffffffffffffffffffffffffffffffffff1673ffffffffffffffffffffffffffffffffffffffff161415611ba357600080fd5b816002836040518082805190602001908083835b60208310611bda5780518252602082019150602081019050602083039250611bb7565b6001836020036101000a03801982511681845116808217855250505050505090500191505090815260200160405180910390206000019080519060200190611c23929190612bc3565b50806002836040518082805190602001908083835b60208310611c5b5780518252602082019150602081019050602083039250611c38565b6001836020036101000a03801982511681845116808217855250505050505090500191505090815260200160405180910390206001019080519060200190611ca4929190612bc3565b505050565b606060008060006060600360008773ffffffffffffffffffffffffffffffffffffffff1673ffffffffffffffffffffffffffffffffffffffff168152602001908152602001600020600001600360008873ffffffffffffffffffffffffffffffffffffffff1673ffffffffffffffffffffffffffffffffffffffff16815260200190815260200160002060010160009054906101000a900473ffffffffffffffffffffffffffffffffffffffff16600360008973ffffffffffffffffffffffffffffffffffffffff1673ffffffffffffffffffffffffffffffffffffffff16815260200190815260200160002060020154600360008a73ffffffffffffffffffffffffffffffffffffffff1673ffffffffffffffffffffffffffffffffffffffff16815260200190815260200160002060030154600360008b73ffffffffffffffffffffffffffffffffffffffff1673ffffffffffffffffffffffffffffffffffffffff168152602001908152602001600020600501848054600181600116156101000203166002900480601f016020809104026020016040519081016040528092919081815260200182805460018160011615610100020316600290048015611eb45780601f10611e8957610100808354040283529160200191611eb4565b820191906000526020600020905b815481529060010190602001808311611e9757829003601f168201915b50505050509450808054600181600116156101000203166002900480601f016020809104026020016040519081016040528092919081815260200182805460018160011615610100020316600290048015611f505780601f10611f2557610100808354040283529160200191611f50565b820191906000526020600020905b815481529060010190602001808311611f3357829003601f168201915b505050505090509450945094509450945091939590929450565b6003602052806000526040600020600091509050806000018054600181600116156101000203166002900480601f0160208091040260200160405190810160405280929190818152602001828054600181600116156101000203166002900480156120165780601f10611feb57610100808354040283529160200191612016565b820191906000526020600020905b815481529060010190602001808311611ff957829003601f168201915b5050505050908060010160009054906101000a900473ffffffffffffffffffffffffffffffffffffffff16908060020154908060030154908060040160009054906101000a900460ff1690806005018054600181600116156101000203166002900480601f0160208091040260200160405190810160405280929190818152602001828054600181600116156101000203166002900480156120f95780601f106120ce576101008083540402835291602001916120f9565b820191906000526020600020905b8154815290600101906020018083116120dc57829003601f168201915b5050505050905086565b60006005826040518082805190602001908083835b6020831061213b5780518252602082019150602081019050602083039250612118565b6001836020036101000a03801982511681845116808217855250505050505090500191505090815260200160405180910390206000808201600061217f9190612b7b565b6001820160006101000a81549073ffffffffffffffffffffffffffffffffffffffff02191690556002820160006121b69190612b7b565b505060006002836040518082805190602001908083835b602083106121f057805182526020820191506020810190506020830392506121cd565b6001836020036101000a03801982511681845116808217855250505050505090500191505090815260200160405180910390206004018190555060006002836040518082805190602001908083835b60208310612262578051825260208201915060208101905060208303925061223f565b6001836020036101000a03801982511681845116808217855250505050505090500191505090815260200160405180910390206003018190555060019050919050565b600281805160208101820180518482526020830160208501208183528095505050505050600091509050806000018054600181600116156101000203166002900480601f0160208091040260200160405190810160405280929190818152602001828054600181600116156101000203166002900480156123675780601f1061233c57610100808354040283529160200191612367565b820191906000526020600020905b81548152906001019060200180831161234a57829003601f168201915b505050505090806001018054600181600116156101000203166002900480601f0160208091040260200160405190810160405280929190818152602001828054600181600116156101000203166002900480156124055780601f106123da57610100808354040283529160200191612405565b820191906000526020600020905b8154815290600101906020018083116123e857829003601f168201915b5050505050908060020160009054906101000a900460ff16908060030154908060040154908060050160009054906101000a900473ffffffffffffffffffffffffffffffffffffffff16905086565b6000600360008373ffffffffffffffffffffffffffffffffffffffff1673ffffffffffffffffffffffffffffffffffffffff168152602001908152602001600020600201549050919050565b6000600115156002836040518082805190602001908083835b602083106124dc57805182526020820191506020810190506020830392506124b9565b6001836020036101000a038019825116818451168082178552505050505050905001915050908152602001604051809103902060020160009054906101000a900460ff16151514156125315760019050612536565b600090505b919050565b600060019054906101000a900473ffffffffffffffffffffffffffffffffffffffff1673ffffffffffffffffffffffffffffffffffffffff163373ffffffffffffffffffffffffffffffffffffffff161461259557600080fd5b82600360008473ffffffffffffffffffffffffffffffffffffffff1673ffffffffffffffffffffffffffffffffffffffff16815260200190815260200160002060000190805190602001906125eb929190612bc3565b5080600360008473ffffffffffffffffffffffffffffffffffffffff1673ffffffffffffffffffffffffffffffffffffffff1681526020019081526020016000206005019080519060200190612642929190612bc3565b506000600360008473ffffffffffffffffffffffffffffffffffffffff1673ffffffffffffffffffffffffffffffffffffffff168152602001908152602001600020600301819055506000600360008473ffffffffffffffffffffffffffffffffffffffff1673ffffffffffffffffffffffffffffffffffffffff168152602001908152602001600020600201819055506000600360008473ffffffffffffffffffffffffffffffffffffffff1673ffffffffffffffffffffffffffffffffffffffff16815260200190815260200160002060040160006101000a81548160ff021916908315150217905550600160008154809291906001019190505550505050565b60006005826040518082805190602001908083835b6020831061277d578051825260208201915060208101905060208303925061275a565b6001836020036101000a0380198251168184511680821785525050505050509050019150509081526020016040518091039020600080820160006127c19190612b7b565b6001820160006101000a81549073ffffffffffffffffffffffffffffffffffffffff02191690556002820160006127f89190612b7b565b505060019050919050565b6000809054906101000a900460ff1681565b6001600360008373ffffffffffffffffffffffffffffffffffffffff1673ffffffffffffffffffffffffffffffffffffffff1681526020019081526020016000206002016000828254019250508190555050565b60008073ffffffffffffffffffffffffffffffffffffffff166002836040518082805190602001908083835b602083106128b85780518252602082019150602081019050602083039250612895565b6001836020036101000a038019825116818451168082178552505050505050905001915050908152602001604051809103902060050160009054906101000a900473ffffffffffffffffffffffffffffffffffffffff1673ffffffffffffffffffffffffffffffffffffffff16141561293057600080fd5b6002826040518082805190602001908083835b602083106129665780518252602082019150602081019050602083039250612943565b6001836020036101000a0380198251168184511680821785525050505050509050019150509081526020016040518091039020600080820160006129aa9190612b7b565b6001820160006129ba9190612b7b565b6002820160006101000a81549060ff0219169055600382016000905560048201600090556005820160006101000a81549073ffffffffffffffffffffffffffffffffffffffff021916905550506005826040518082805190602001908083835b60208310612a3d5780518252602082019150602081019050602083039250612a1a565b6001836020036101000a038019825116818451168082178552505050505050905001915050908152602001604051809103902060008082016000612a819190612b7b565b6001820160006101000a81549073ffffffffffffffffffffffffffffffffffffffff0219169055600282016000612ab89190612b7b565b505060019050919050565b600060019054906101000a900473ffffffffffffffffffffffffffffffffffffffff1673ffffffffffffffffffffffffffffffffffffffff163373ffffffffffffffffffffffffffffffffffffffff1614612b1d57600080fd5b6001600360008373ffffffffffffffffffffffffffffffffffffffff1673ffffffffffffffffffffffffffffffffffffffff16815260200190815260200160002060040160006101000a81548160ff02191690831515021790555050565b50805460018160011615610100020316600290046000825580601f10612ba15750612bc0565b601f016020900490600052602060002090810190612bbf9190612c43565b5b50565b828054600181600116156101000203166002900490600052602060002090601f016020900481019282601f10612c0457805160ff1916838001178555612c32565b82800160010185558215612c32579182015b82811115612c31578251825591602001919060010190612c16565b5b509050612c3f9190612c43565b5090565b612c6591905b80821115612c61576000816000905550600101612c49565b5090565b9056fea265627a7a72305820af56df75b6c623529979889e365858eb2c08259d612a80bae1271bee0629fe0264736f6c63430005090032",
  "source": "pragma solidity ^ 0.5 .9;\n\n//Contract KYC\n\ncontract Bank {\n\n    bool public isallowed;\n    address owner;\n    int256 totalbank = 0;\n\n\n    // Structure of customer\n\n    struct customer {\n        string custname; //Unique\n        string custdata;\n        bool status;\n        uint256 downvote;\n        uint256 upvote;\n        address custbank;\n    }\n\n    //Mapping of customer struct to string(username)\n\n    mapping(string => customer) public customers;\n\n\n\n    // Structure of bank\n\n    struct bank {\n        string bankname;\n        address ethaddress;\n        uint256 report;\n        uint256 count;\n        bool kycpermission;\n        string regnumber;\n    }\n\n    //Mapping of customer struct to address\n\n    mapping(address => bank) public banks;\n    mapping(address => bool) isbank;\n\n\n\n    // Structure of kycrequest\n\n    struct kycreq {\n        string custname; //Unique\n        address bankadd;\n        string kycdata;\n    }\n\n    //Mapping of customer struct to Kycrequest(username)\n\n    mapping(string => kycreq) public kycreqs;\n\n\n\n    // Main constructor of the contract\n\n  //  constructor() public {\n    //    owner = msg.sender;\n    //}\n\n\n\n    //Add Request function\n\n    function addreq(address ethaddress, string memory custname, string memory kycdata) public returns(bool) {\n\n        //    if(banks[ethaddress].kycpermission==false)\n        require(banks[ethaddress].kycpermission == false); {\n            kycreqs[custname].custname = custname;\n            kycreqs[custname].kycdata = kycdata;\n            return true;\n        }\n    }\n\n\n\n    //Add Customer function\n\n    function addcust(string memory custname, string memory custdata) public {\n\n        require(customers[custname].custbank != address(0)); {\n            customers[custname].custname = custname;\n            customers[custname].custdata = custdata;\n        }\n\n    }\n\n\n\n    //Remove Request function\n\n    function remreq(string memory kycname) public returns(bool) {\n\n        delete kycreqs[kycname];\n        return true;\n\n    }\n\n\n\n    //Remove Customer function\n\n    function remcust(string memory custname) public returns(bool) {\n        require(customers[custname].custbank != address(0)); {\n            delete customers[custname];\n            delete kycreqs[custname];\n            return true;\n        }\n    }\n\n\n\n    //View Customer function\n\n    function viewcust(string calldata custname) external view returns(string memory, string memory) {\n\n        require(customers[custname].custbank != address(0)); {\n            return (customers[custname].custname, customers[custname].custdata);\n        }\n\n    }\n\n\n\n    //Upvote function\n\n    function uvote(string memory custname) public returns(bool) {\n        customers[custname].upvote++;\n        return true;\n    }\n\n\n\n\n    //Downvote function\n\n    function dvote(string memory custname) public returns(bool) {\n        customers[custname].downvote--;\n        return true;\n    }\n\n\n\n\n    //Modify Customer function\n\n    function modcust(string memory custname) public returns(bool) {\n        delete kycreqs[custname];\n        customers[custname].upvote = 0;\n        customers[custname].downvote = 0;\n        return true;\n    }\n\n\n\n    //Add Bank Reports function\n\n    function addbankreport(address ethaddress) public {\n        banks[ethaddress].report += 1;\n    }\n\n\n\n    //Get Bank Reports function\n\n    function seebankreport(address ethaddress) public view returns(uint256) {\n        return (banks[ethaddress].report);\n    }\n\n\n\n    //Get Customer Status function\n\n    function custstatus(string memory custname) public view returns(bool) {\n\n        if (customers[custname].status == true) {\n            return true;\n        } else {\n            return false;\n        }\n    }\n\n\n\n    //View Bank Details function\n\n    function bankdetail(address _address) public view returns(string memory, address, uint256, uint256, string memory) {\n        return (banks[_address].bankname, banks[_address].ethaddress, banks[_address].report, banks[_address].count, banks[_address].regnumber);\n    }\n\n\n\n    //Add Bank function\n\n    function addbank(string memory bankname, address _address, string memory regnumber) public {\n        require(msg.sender == owner); {\n            banks[_address].bankname = bankname;\n            banks[_address].regnumber = regnumber;\n            banks[_address].count = 0;\n            banks[_address].report = 0;\n            banks[_address].kycpermission = false;\n        }\n        totalbank++;\n    }\n\n\n\n    //Modify bank kycPermission function\n\n    function modifybank(address _address) public {\n        require(msg.sender == owner); {\n            banks[_address].kycpermission = true;\n        }\n    }\n\n\n\n    //Remove Bank  function\n\n    function rembank(address _address) public {\n        require(msg.sender == owner); {\n            delete banks[_address];\n        }\n    }\n\n\n}\n",
  "sourcePath": "/home/navneet/Desktop/mytruffle/contracts/Bank.sol",
  "compiler": {
    "name": "solc",
    "version": "0.5.9+commit.e560f70d.Emscripten.clang"
  },
  "schemaVersion": "3.2.3",
  "updatedAt": "2020-08-30T10:37:02.423Z",
  "networkType": "ethereum",
  "devdoc": {
    "methods": {}
  },
  "userdoc": {
    "methods": {}
  }
}